:100000000C9446000C9465000C9465000C946500FB
:100010000C9465000C9465000C9465000C946500CC
:100020000C9465000C9465000C9465000C946500BC
:100030000C9465000C94B5020C9465000C9465005A
:100040000C9465000C9465000C9465000C9465009C
:100050000C9465000C9465000C9465000C9465008C
:100060000C9465000C9465000C9465000C9465007C
:100070000C9465000C9465000C9465000C9465006C
:100080000C9465000C9465000C94650011241FBE4F
:10009000CFEFD0E4DEBFCDBF11E0A0E0B1E0ECE5F2
:1000A000FBE000E00BBF02C007900D92A231B10748
:1000B000D9F721E0A2E1B1E001C01D92A332B2075D
:1000C000E1F70E944F040C949E050C940000CF931E
:1000D000DF93CDB7DEB781E00E948E000000DF9194
:1000E000CF910895CF93DF93CDB7DEB784E690E04C
:1000F0000E94330188E30E948E0086E00E948E00F9
:100100008FE00E948E0081E00E948E008AE090E0E5
:100110000E9433010000DF91CF910895CF93DF93C8
:100120000F92CDB7DEB789838BE290E0FC0120818E
:100130008BE290E02F7BFC01208385E290E0298117
:10014000FC0120838BE290E0FC0120818BE290E0B7
:100150002068FC01208300008BE290E0FC012081FC
:100160008BE290E02F77FC01208382E090E00E94F8
:10017000330100000F90DF91CF910895CF93DF936B
:100180000F92CDB7DEB789838BE290E0FC0120812E
:100190008BE290E02064FC01208385E290E02981DD
:1001A000FC0120838BE290E0FC0120818BE290E057
:1001B0002068FC01208300008BE290E0FC0120819C
:1001C0008BE290E02F77FC01208381E090E00E9499
:1001D000330100000F90DF91CF910895CF93DF930B
:1001E00000D000D0CDB7DEB78A837C836B830E94BA
:1001F00067008A81898311C0898191E0980F998372
:100200000E941C018B819C819C012F5F3F4F3C838E
:100210002B83FC0180810E94BE008B819C81FC01AC
:100220008081882349F7000000000F900F900F9005
:100230000F90DF91CF910895CF93DF930F92CDB7B9
:10024000DEB789838981813128F4898181580E94B0
:100250008E0004C0898181550E948E0000000F909D
:10026000DF91CF910895CF93DF9300D000D000D0DD
:10027000CDB7DEB79E838D831A82198213C01C828C
:100280001B8206C000008B819C8101969C838B831E
:100290008B819C8187309340ACF389819A81019650
:1002A0009A83898329813A818D819E812817390714
:1002B00034F30000000026960FB6F894DEBF0FBEA0
:1002C000CDBFDF91CF910895CF93DF9300D00F92F0
:1002D000CDB7DEB789837B836A8389818A3031F425
:1002E0008A819B81BC018DE00E94640180EC90E0DA
:1002F000FC018081882F90E080729927892BB1F3CF
:1003000086EC90E02981FC01208380E090E00F9052
:100310000F900F90DF91CF910895CF93DF9300D08E
:100320000F92CDB7DEB789836A834B838B81882395
:1003300071F08A81282F30E081E090E002C0880FC0
:10034000991F2A95E2F7982F8981892B0EC08A81FF
:10035000282F30E081E090E002C0880F991F2A9595
:10036000E2F7982F9095898189230F900F900F9035
:10037000DF91CF910895CF93DF9300D0CDB7DEB753
:1003800089836A838A81282F30E081E090E002C06F
:10039000880F991F2A95E2F7982F898189230F905A
:1003A0000F90DF91CF9108950F931F93CF93DF9319
:1003B000CDB7DEB768970FB6F894DEBF0FBECDBFDE
:1003C0006D837E838F83988729873A874B875C87E5
:1003D0008D819E81AF81B885898B9A8BAB8BBC8BCD
:1003E00009851A852B853C8569897A898B899C8941
:1003F000A90198010E9473056D8B7E8B8F8B988F5E
:100400008D899E89AF89B88D89839A83AB83BC839C
:1004100089819A81AB81BC81892B8A2B8B2B29F412
:1004200089859A85AB85BC8511C089859A85AB8500
:10043000BC858D839E83AF83B88789819A81AB8188
:10044000BC8189879A87AB87BC87C2CF8D879E87FF
:10045000AF87B88B6D857E858F85988968960FB636
:10046000F894DEBF0FBECDBFDF91CF911F910F91EA
:100470000895CF93DF9300D000D0CDB7DEB7698366
:100480007A838B839C8389819A81AB81BC818093A1
:100490000E0190930F01A0931001B0931101809170
:1004A0000E0190910F01A0911001B0911101809364
:1004B000130190931401A0931501B093160100004D
:1004C0000F900F900F900F90DF91CF910895CF93E1
:1004D000DF93CDB7DEB781E890E02BE0FC0120830D
:1004E00088E890E02DE730E0FC01318320838FE63F
:1004F00090E022E0FC01208384E890E0FC0111827E
:10050000108280910E0190910F01A0911001B09185
:1005100011018093130190931401A0931501B093DE
:1005200016018FE590E0FC0120818FE590E02068C6
:10053000FC0120830000DF91CF910895CF93DF93DA
:10054000CDB7DEB781E890E0FC0110820000DF91BA
:10055000CF910895CF93DF93CDB7DEB781E080933D
:1005600012010000DF91CF9108951F920F920FB6F4
:100570000F9211240BB60F922F933F934F935F93DB
:100580006F937F938F939F93AF93BF93EF93FF935B
:10059000CF93DF93CDB7DEB7809113019091140113
:1005A000A0911501B09116010197A109B10980939D
:1005B000130190931401A0931501B093160180913B
:1005C000130190911401A0911501B0911601892B8E
:1005D0008A2B8B2B91F40E94AA0280910E0190919C
:1005E0000F01A0911001B09111018093130190931C
:1005F0001401A0931501B09316010000DF91CF9173
:10060000FF91EF91BF91AF919F918F917F916F91EA
:100610005F914F913F912F910F900BBE0F900FBEA6
:100620000F901F901895CF93DF9300D0CDB7DEB712
:100630009A8389830E9467008981805D0E94BE0041
:1006400000000F900F90DF91CF910895CF93DF932B
:1006500000D0CDB7DEB79A83898389819A81892BAF
:1006600061F089819A8199230CF4C9C089819A81AA
:1006700001970D9708F0C3C0BFC088E290E02FEE4D
:10068000FC012083000086E290E0FC01808160E0B4
:100690000E94BB01882329F482E090E09A83898339
:1006A000B1C086E290E0FC01808161E00E94BB0164
:1006B000882329F485E090E09A838983A3C086E2A9
:1006C00090E0FC01808162E00E94BB01882329F454
:1006D00088E090E09A83898395C086E290E0FC01EF
:1006E000808163E00E94BB01882329F48CE090E0C4
:1006F0009A83898387C088E290E02FEDFC012083F4
:10070000000086E290E0FC01808160E00E94BB0175
:10071000882329F483E090E09A83898373C086E27A
:1007200090E0FC01808161E00E94BB01882329F4F4
:1007300086E090E09A83898365C086E290E0FC01C0
:10074000808162E00E94BB01882329F489E090E067
:100750009A83898357C086E290E0FC01808163E040
:100760000E94BB01882329F481E090E09A83898369
:1007700049C088E290E02FEBFC012083000086E274
:1007800090E0FC01808160E00E94BB01882329F495
:1007900084E090E09A83898335C086E290E0FC0192
:1007A000808161E00E94BB01882329F487E090E00A
:1007B0009A83898327C086E290E0FC01808162E011
:1007C0000E94BB01882329F48AE090E09A83898300
:1007D00019C086E290E0FC01808163E00E94BB01C9
:1007E000882329F48BE090E09A8389830BC08DE005
:1007F00090E09A83898306C01A82198203C01A8204
:100800001982000089819A81092E000CAA0BBB0B6A
:100810008E309105A105B105C0F580569A4FFC01B7
:100820000C9495051092220133C081E0809322013F
:100830002FC082E0809322012BC083E080932201AD
:1008400027C084E08093220123C085E080932201A9
:100850001FC086E0809322011BC087E080932201A5
:1008600017C088E08093220113C089E080932201A1
:100870000FC08AEF809322010BC083EF8093220187
:1008800007C08FE28093220103C0000001C0000076
:1008900089819A810F900F90DF91CF910895CF9326
:1008A000DF9300D000D000D0CDB7DEB781E290E07A
:1008B000FC01108282E290E02FEFFC01208384E2B1
:1008C00090E02FEFFC01208385E290E0FC01108294
:1008D00087E290E020EFFC01208388E290E02FE0A7
:1008E000FC0120838AE290E02FEFFC0120838BE261
:1008F00090E0FC0110820E94720087E191E09E83EB
:100900008D8381E090E09B838A838FEF8C838C8141
:100910008093170184E690E0A0E0B0E08093180196
:1009200090931901A0931A01B0931B0180911801B3
:1009300090911901A0911A01B0911B0180931C01A3
:1009400090931D01A0931E01B0931F0186E293E0D6
:10095000909321018093200164E670E080E090E0B4
:100960000E9439020E9467021982ACC08981882FD7
:1009700090E0880F991F9E012F5F3F4F820F931FBA
:100980000496FC0180819181FC014581568167813B
:1009900070858981882F90E0880F991F9E012F5FB5
:1009A0003F4F820F931F0496FC0180819181FC01CF
:1009B00081819281A381B481481759076A077B0717
:1009C00009F052C08981882F90E0880F991F9E01FD
:1009D0002F5F3F4F820F931F0496FC01808191810E
:1009E000FC01218532858981882F90E0880F991F2D
:1009F000AE014F5F5F4F840F951F0496FC0180810D
:100A00009181FC018081082E000C990BF901099558
:100A1000AC018981882F90E0880F991F9E012F5F7C
:100A20003F4F820F931F0496FC0180819181242FF8
:100A3000FC0120838981882F90E0880F991F9E01F7
:100A40002F5F3F4F820F931F0496FC01808191819D
:100A5000FC01158216821782108680912201082ED1
:100A6000000C990B0E9413038981882F90E0880F56
:100A7000991F9E012F5F3F4F820F931F0496FC0129
:100A800080819181FC0185819681A781B085298132
:100A9000222F30E0220F331FAE014F5F5F4F240F34
:100AA000351F2C5F3F4FF901208131818C599F4FB9
:100AB000AF4FBF4FF90185839683A783B0878981A4
:100AC0008F5F89838981882F90E02A813B818217FB
:100AD000930708F44BCF0000809112018823E1F3C3
:100AE0001092120141CFA1E21A2EAA1BBB1BFD01DD
:100AF0000DC0AA1FBB1FEE1FFF1FA217B307E407FD
:100B0000F50720F0A21BB30BE40BF50B661F771F54
:100B1000881F991F1A9469F7609570958095909534
:100B20009B01AC01BD01CF010895EE0FFF1F002412
:100B3000001C0BBE0790F691E02D0994F894FFCFAE
:100B400047041204150419041D0421042504290472
:0C0B50002D04310435043D043904410437
:100B5C000000000200000000640100000000010021
:020B6C00000087
:00000001FF
