:100000000C9446000C9465000C9465000C946500FB
:100010000C9465000C9465000C9465000C946500CC
:100020000C9465000C9465000C9465000C946500BC
:100030000C9465000C94B5020C9465000C9465005A
:100040000C9465000C9465000C9465000C9465009C
:100050000C9465000C9465000C9465000C9465008C
:100060000C9465000C9465000C9465000C9465007C
:100070000C9465000C9465000C9465000C9465006C
:100080000C9465000C9465000C94650011241FBE4F
:10009000CFEFD0E4DEBFCDBF11E0A0E0B1E0EAEFEA
:1000A000FEE000E00BBF02C007900D92A839B10737
:1000B000D9F721E0A8E9B1E001C01D92A73BB20742
:1000C000E1F70E9493050C9465070C940000CF9310
:1000D000DF93CDB7DEB781E00E948E000000DF9194
:1000E000CF910895CF93DF93CDB7DEB784E690E04C
:1000F0000E94330188E30E948E0086E00E948E00F9
:100100008FE00E948E0081E00E948E008AE090E0E5
:100110000E9433010000DF91CF910895CF93DF93C8
:100120000F92CDB7DEB789838BE290E0FC0120818E
:100130008BE290E02F7BFC01208385E290E0298117
:10014000FC0120838BE290E0FC0120818BE290E0B7
:100150002068FC01208300008BE290E0FC012081FC
:100160008BE290E02F77FC01208382E090E00E94F8
:10017000330100000F90DF91CF910895CF93DF936B
:100180000F92CDB7DEB789838BE290E0FC0120812E
:100190008BE290E02064FC01208385E290E02981DD
:1001A000FC0120838BE290E0FC0120818BE290E057
:1001B0002068FC01208300008BE290E0FC0120819C
:1001C0008BE290E02F77FC01208381E090E00E9499
:1001D000330100000F90DF91CF910895CF93DF930B
:1001E00000D000D0CDB7DEB78A837C836B830E94BA
:1001F00067008A81898311C0898191E0980F998372
:100200000E941C018B819C819C012F5F3F4F3C838E
:100210002B83FC0180810E94BE008B819C81FC01AC
:100220008081882349F7000000000F900F900F9005
:100230000F90DF91CF910895CF93DF930F92CDB7B9
:10024000DEB789838981813128F4898181580E94B0
:100250008E0004C0898181550E948E0000000F909D
:10026000DF91CF910895CF93DF9300D000D000D0DD
:10027000CDB7DEB79E838D831A82198213C01C828C
:100280001B8206C000008B819C8101969C838B831E
:100290008B819C8187309340ACF389819A81019650
:1002A0009A83898329813A818D819E812817390714
:1002B00034F30000000026960FB6F894DEBF0FBEA0
:1002C000CDBFDF91CF910895CF93DF9300D00F92F0
:1002D000CDB7DEB789837B836A8389818A3031F425
:1002E0008A819B81BC018DE00E94640180EC90E0DA
:1002F000FC018081882F90E080729927892BB1F3CF
:1003000086EC90E02981FC01208380E090E00F9052
:100310000F900F90DF91CF910895CF93DF9300D08E
:100320000F92CDB7DEB789836A834B838B81882395
:1003300071F08A81282F30E081E090E002C0880FC0
:10034000991F2A95E2F7982F8981892B0EC08A81FF
:10035000282F30E081E090E002C0880F991F2A9595
:10036000E2F7982F9095898189230F900F900F9035
:10037000DF91CF910895CF93DF9300D0CDB7DEB753
:1003800089836A838A81282F30E081E090E002C06F
:10039000880F991F2A95E2F7982F898189230F905A
:1003A0000F90DF91CF9108950F931F93CF93DF9319
:1003B000CDB7DEB768970FB6F894DEBF0FBECDBFDE
:1003C0006D837E838F83988729873A874B875C87E5
:1003D0008D819E81AF81B885898B9A8BAB8BBC8BCD
:1003E00009851A852B853C8569897A898B899C8941
:1003F000A90198010E9431076D8B7E8B8F8B988F9E
:100400008D899E89AF89B88D89839A83AB83BC839C
:1004100089819A81AB81BC81892B8A2B8B2B29F412
:1004200089859A85AB85BC8511C089859A85AB8500
:10043000BC858D839E83AF83B88789819A81AB8188
:10044000BC8189879A87AB87BC87C2CF8D879E87FF
:10045000AF87B88B6D857E858F85988968960FB636
:10046000F894DEBF0FBECDBFDF91CF911F910F91EA
:100470000895CF93DF9300D000D0CDB7DEB7698366
:100480007A838B839C8389819A81AB81BC818093A1
:100490000E0190930F01A0931001B0931101809170
:1004A0000E0190910F01A0911001B0911101809364
:1004B000990190939A01A0939B01B0939C01000035
:1004C0000F900F900F900F90DF91CF910895CF93E1
:1004D000DF93CDB7DEB781E890E02BE0FC0120830D
:1004E00088E890E02DE730E0FC01318320838FE63F
:1004F00090E022E0FC01208384E890E0FC0111827E
:10050000108280910E0190910F01A0911001B09185
:1005100011018093990190939A01A0939B01B0934C
:100520009C018FE590E0FC0120818FE590E0206840
:10053000FC0120830000DF91CF910895CF93DF93DA
:10054000CDB7DEB781E890E0FC0110820000DF91BA
:10055000CF910895CF93DF93CDB7DEB781E080933D
:1005600098010000DF91CF9108951F920F920FB66E
:100570000F9211240BB60F922F933F934F935F93DB
:100580006F937F938F939F93AF93BF93EF93FF935B
:10059000CF93DF93CDB7DEB78091990190919A0107
:1005A000A0919B01B0919C010197A109B109809391
:1005B000990190939A01A0939B01B0939C01809123
:1005C000990190919A01A0919B01B0919C01892B76
:1005D0008A2B8B2B91F40E94AA0280910E0190919C
:1005E0000F01A0911001B091110180939901909396
:1005F0009A01A0939B01B0939C010000DF91CF91E1
:10060000FF91EF91BF91AF919F918F917F916F91EA
:100610005F914F913F912F910F900BBE0F900FBEA6
:100620000F901F901895CF93DF9300D0CDB7DEB712
:100630009A8389830E9467008981805D0E94BE0041
:1006400000000F900F90DF91CF910895CF93DF932B
:1006500000D0CDB7DEB79A83898389819A81892BAF
:1006600061F089819A8199230CF4C9C089819A81AA
:1006700001970D9708F0C3C0BFC088E290E02FEE4D
:10068000FC012083000086E290E0FC01808160E0B4
:100690000E94BB01882329F482E090E09A83898339
:1006A000B1C086E290E0FC01808161E00E94BB0164
:1006B000882329F485E090E09A838983A3C086E2A9
:1006C00090E0FC01808162E00E94BB01882329F454
:1006D00088E090E09A83898395C086E290E0FC01EF
:1006E000808163E00E94BB01882329F48CE090E0C4
:1006F0009A83898387C088E290E02FEDFC012083F4
:10070000000086E290E0FC01808160E00E94BB0175
:10071000882329F483E090E09A83898373C086E27A
:1007200090E0FC01808161E00E94BB01882329F4F4
:1007300086E090E09A83898365C086E290E0FC01C0
:10074000808162E00E94BB01882329F489E090E067
:100750009A83898357C086E290E0FC01808163E040
:100760000E94BB01882329F481E090E09A83898369
:1007700049C088E290E02FEBFC012083000086E274
:1007800090E0FC01808160E00E94BB01882329F495
:1007900084E090E09A83898335C086E290E0FC0192
:1007A000808161E00E94BB01882329F487E090E00A
:1007B0009A83898327C086E290E0FC01808162E011
:1007C0000E94BB01882329F48AE090E09A83898300
:1007D00019C086E290E0FC01808163E00E94BB01C9
:1007E000882329F48BE090E09A8389830BC08DE005
:1007F00090E09A83898306C01A82198203C01A8204
:100800001982000089819A81092E000CAA0BBB0B6A
:100810008E309105A105B105C0F58959984FFC01AD
:100820000C9453071092B60133C081E08093B60157
:100830002FC082E08093B6012BC083E08093B60185
:1008400027C084E08093B60123C085E08093B60181
:100850001FC086E08093B6011BC087E08093B6017D
:1008600017C088E08093B60113C089E08093B60179
:100870000FC08AEF8093B6010BC083EF8093B6015F
:1008800007C08FE28093B60103C0000001C00000E2
:1008900089819A810F900F90DF91CF9108950F93E6
:1008A0001F93CF93DF9300D0CDB7DEB79A838983B0
:1008B00089819A81092E000CAA0BBB0B8830910507
:1008C000A105B10508F01AC18B58984FFC010C9492
:1008D00053078091160190911701BC0181E00E949D
:1008E000EE0010929E0110929D018091B601833F0F
:1008F00039F481E090E09A8389830E9467000AC1FD
:100900001A82198207C18091B6018F3209F0F9C0AD
:1009100082E090E09A838983F4C01092B5017AC096
:100920008091B5018F5F0E941C018091120190910E
:1009300013012091B501422F50E020919D01222FFB
:1009400030E0240F351F820F931FFC0180810E942D
:10095000BE008091B5018F5E0E941C018091140140
:10096000909115012091B501422F50E020919D01F9
:10097000222F30E0240F351F820F931FFC0180814E
:100980000E94BE008091B501882309F03EC080918D
:100990009E018823D9F48091120190911301209136
:1009A000B501422F50E020919D01222F30E0240F0D
:1009B000351F820F931FFC0180818A3239F486E053
:1009C00090E09A83898389819A81A6C080919E0153
:1009D0008130D9F480911401909115012091B501D5
:1009E000422F50E020919D01222F30E0240F351F2F
:1009F000820F931FFC0180818A3239F486E090E0F7
:100A00009A83898389819A8187C08091B5018F5F9C
:100A10008093B5018091B501803108F481CF809138
:100A20009E01882321F481E00E941C0103C081E122
:100A30000E941C0180919D018F5F80939D01809198
:100A40009D01282F30E08091B501882F90E0820F22
:100A5000931F8C0180911201909113010E945C07F9
:100A600001970817190711F410929D018091B601A2
:100A7000813029F410929E0181E00E941C01809136
:100A8000B601823031F481E080939E0181E10E94C1
:100A90001C018091B601833FB1F584E090E09A8318
:100AA000898331C082E090E09A8389838091B60186
:100AB0008F3259F585E090E09A83898326C0809132
:100AC000B601833F21F581E090E09A8389831FC0BE
:100AD0000E9467008091180190911901BC0181E08A
:100AE0000E94EE0087E090E09A83898313C0809192
:100AF000B601833F71F41A8219820BC01A821982DF
:100B000009C0000007C0000005C0000003C00000CD
:100B100001C0000089819A810F900F90DF91CF91E1
:100B20001F910F910895CF93DF93CDB7DEB76A97EA
:100B30000FB6F894DEBF0FBECDBF81E290E0DC01BE
:100B40001C9282E290E02FEFFC01208384E290E08F
:100B50002FEFDC012C9385E290E0FC01108287E20C
:100B600090E020EFDC012C9388E290E02FE0FC0184
:100B700020838AE290E02FEFDC012C938BE290E05F
:100B8000FC0110820E9472008FE991E09C878B87A4
:100B90008AEA91E09E878D8782E090E09987888736
:100BA0008FEF8A878A8580939F0182E390E0A0E09F
:100BB000B0E08093A0019093A101A093A201B09313
:100BC000A3018091A0019091A101A091A201B091F7
:100BD000A3018093A4019093A501A093A601B093D3
:100BE000A70186E293E09093A9018093A8018A85EA
:100BF0008093AA018CE291E0A0E0B0E08093AB0189
:100C00009093AC01A093AD01B093AE018091AB0184
:100C10009091AC01A091AD01B091AE018093AF0174
:100C20009093B001A093B101B093B2018FE494E02E
:100C30009093B4018093B3018B859C85FC018181E5
:100C40009281A381B4818A839B83AC83BD8381E03D
:100C500090E09F838E8333C08E819F81880F991F80
:100C60009E012F5F3F4F820F931F0A96DC018D91EB
:100C70009C91FC0181819281A381B4812A813B8175
:100C80004C815D812F87388B498B5A8B9C01AD013C
:100C90006F85788989899A890E94D4016B8B7C8BB6
:100CA0008D8B9E8B8B899C89AD89BE898A839B8322
:100CB000AC83BD838E819F8101969F838E832E811D
:100CC0003F81888599852817390730F22A813B8131
:100CD0004C815D812F8B388F498F5A8F6F89788D2A
:100CE000898D9A8D0E9439020E9467021982A8C0DC
:100CF0008981882F90E0880F991F9E012F5F3F4FB9
:100D0000820F931F0A96DC018D919C91FC01458115
:100D10005681678170858981882F90E0880F991F9F
:100D20009E012F5F3F4F820F931F0A96DC018D912A
:100D30009C91FC0181819281A381B481481759075C
:100D40006A077B0709F04BC08981882F90E0880FE4
:100D5000991F9E012F5F3F4F820F931F0A96DC0160
:100D60008D919C91FC01218532858981882F90E0AD
:100D7000880F991FAE014F5F5F4F840F951F0A9632
:100D8000DC018D919C91FC018081082E000C990B57
:100D9000F9010995AC018981882F90E0880F991F8E
:100DA0009E012F5F3F4F820F931F0A96DC018D91AA
:100DB0009C91242FFC0120838981882F90E0880F4B
:100DC000991F9E012F5F3F4F820F931F0A96DC01F0
:100DD0008D919C91FC011582168217821086898163
:100DE000882F90E0880F991F9E012F5F3F4F820F41
:100DF000931F0A96DC018D919C91FC0145815681DF
:100E0000678170858981882F90E0880F991F9E01E6
:100E10002F5F3F4F820F931F0A96DC012D913C916B
:100E20008A819B81AC81BD81840F951FA61FB71F4E
:100E3000F90185839683A783B08789818F5F898332
:100E40008981882F90E0288539858217930708F4D7
:100E50004FCF0000809198018823E1F31092980110
:100E600045CFA1E21A2EAA1BBB1BFD010DC0AA1F74
:100E7000BB1FEE1FFF1FA217B307E407F50720F003
:100E8000A21BB30BE40BF50B661F771F881F991F7E
:100E90001A9469F760957095809590959B01AC01C7
:100EA000BD01CF010895EE0FFF1F0024001C0BBEF3
:100EB0000790F691E02D0994FC0101900020E9F7DC
:100EC000809590958E0F9F1F0895F894FFCF47044B
:100ED0001204150419041D042104250429042D04F9
:100EE000310435043D0439044104690483048D044C
:0A0EF000520556055F0568057705F9
:100EFA000000000200000000640100000000010080
:100F0A0000001A01480176018701202020202020B4
:100F1A0020202020202020202020202020202020C7
:100F2A00202020202A2020202020202020202020AD
:100F3A00202020202020200020202020202A2020BD
:100F4A00202020202A20202020202020202020208D
:100F5A0020202020202020202020202020202A207D
:100F6A0020202020200020202047616D6520537416
:100F7A006172742020200020202020204372617397
:080F8A00682020202020200037
:00000001FF
